{
  "_format": "hh3-artifact-1",
  "contractName": "BearthNFT",
  "sourceName": "contracts/BearthNFT.sol",
  "abi": [
    {
      "inputs": [
        {
          "internalType": "string",
          "name": "n",
          "type": "string"
        },
        {
          "internalType": "string",
          "name": "s",
          "type": "string"
        },
        {
          "internalType": "string",
          "name": "u",
          "type": "string"
        },
        {
          "internalType": "address",
          "name": "m",
          "type": "address"
        },
        {
          "internalType": "address",
          "name": "fixedAddr",
          "type": "address"
        }
      ],
      "stateMutability": "nonpayable",
      "type": "constructor"
    },
    {
      "inputs": [],
      "name": "AccessControlBadConfirmation",
      "type": "error"
    },
    {
      "inputs": [
        {
          "internalType": "address",
          "name": "account",
          "type": "address"
        },
        {
          "internalType": "bytes32",
          "name": "neededRole",
          "type": "bytes32"
        }
      ],
      "name": "AccessControlUnauthorizedAccount",
      "type": "error"
    },
    {
      "inputs": [
        {
          "internalType": "uint256",
          "name": "numerator",
          "type": "uint256"
        },
        {
          "internalType": "uint256",
          "name": "denominator",
          "type": "uint256"
        }
      ],
      "name": "ERC2981InvalidDefaultRoyalty",
      "type": "error"
    },
    {
      "inputs": [
        {
          "internalType": "address",
          "name": "receiver",
          "type": "address"
        }
      ],
      "name": "ERC2981InvalidDefaultRoyaltyReceiver",
      "type": "error"
    },
    {
      "inputs": [
        {
          "internalType": "uint256",
          "name": "tokenId",
          "type": "uint256"
        },
        {
          "internalType": "uint256",
          "name": "numerator",
          "type": "uint256"
        },
        {
          "internalType": "uint256",
          "name": "denominator",
          "type": "uint256"
        }
      ],
      "name": "ERC2981InvalidTokenRoyalty",
      "type": "error"
    },
    {
      "inputs": [
        {
          "internalType": "uint256",
          "name": "tokenId",
          "type": "uint256"
        },
        {
          "internalType": "address",
          "name": "receiver",
          "type": "address"
        }
      ],
      "name": "ERC2981InvalidTokenRoyaltyReceiver",
      "type": "error"
    },
    {
      "inputs": [],
      "name": "ERC721EnumerableForbiddenBatchMint",
      "type": "error"
    },
    {
      "inputs": [
        {
          "internalType": "address",
          "name": "sender",
          "type": "address"
        },
        {
          "internalType": "uint256",
          "name": "tokenId",
          "type": "uint256"
        },
        {
          "internalType": "address",
          "name": "owner",
          "type": "address"
        }
      ],
      "name": "ERC721IncorrectOwner",
      "type": "error"
    },
    {
      "inputs": [
        {
          "internalType": "address",
          "name": "operator",
          "type": "address"
        },
        {
          "internalType": "uint256",
          "name": "tokenId",
          "type": "uint256"
        }
      ],
      "name": "ERC721InsufficientApproval",
      "type": "error"
    },
    {
      "inputs": [
        {
          "internalType": "address",
          "name": "approver",
          "type": "address"
        }
      ],
      "name": "ERC721InvalidApprover",
      "type": "error"
    },
    {
      "inputs": [
        {
          "internalType": "address",
          "name": "operator",
          "type": "address"
        }
      ],
      "name": "ERC721InvalidOperator",
      "type": "error"
    },
    {
      "inputs": [
        {
          "internalType": "address",
          "name": "owner",
          "type": "address"
        }
      ],
      "name": "ERC721InvalidOwner",
      "type": "error"
    },
    {
      "inputs": [
        {
          "internalType": "address",
          "name": "receiver",
          "type": "address"
        }
      ],
      "name": "ERC721InvalidReceiver",
      "type": "error"
    },
    {
      "inputs": [
        {
          "internalType": "address",
          "name": "sender",
          "type": "address"
        }
      ],
      "name": "ERC721InvalidSender",
      "type": "error"
    },
    {
      "inputs": [
        {
          "internalType": "uint256",
          "name": "tokenId",
          "type": "uint256"
        }
      ],
      "name": "ERC721NonexistentToken",
      "type": "error"
    },
    {
      "inputs": [
        {
          "internalType": "address",
          "name": "owner",
          "type": "address"
        },
        {
          "internalType": "uint256",
          "name": "index",
          "type": "uint256"
        }
      ],
      "name": "ERC721OutOfBoundsIndex",
      "type": "error"
    },
    {
      "inputs": [],
      "name": "EnforcedPause",
      "type": "error"
    },
    {
      "inputs": [],
      "name": "ExpectedPause",
      "type": "error"
    },
    {
      "inputs": [],
      "name": "InvalidAddress",
      "type": "error"
    },
    {
      "inputs": [],
      "name": "InvalidBatchMintParams",
      "type": "error"
    },
    {
      "inputs": [],
      "name": "InvalidEmergencyTransfer",
      "type": "error"
    },
    {
      "inputs": [],
      "name": "InvalidLimits",
      "type": "error"
    },
    {
      "inputs": [],
      "name": "InvalidParams",
      "type": "error"
    },
    {
      "inputs": [],
      "name": "InvalidProof",
      "type": "error"
    },
    {
      "inputs": [],
      "name": "InvalidRoyaltyParams",
      "type": "error"
    },
    {
      "inputs": [],
      "name": "InvalidURI",
      "type": "error"
    },
    {
      "inputs": [],
      "name": "InvalidWLTimes",
      "type": "error"
    },
    {
      "inputs": [],
      "name": "LimitExceededOrWrongPayment",
      "type": "error"
    },
    {
      "inputs": [],
      "name": "NoBalance",
      "type": "error"
    },
    {
      "inputs": [
        {
          "internalType": "address",
          "name": "owner",
          "type": "address"
        }
      ],
      "name": "OwnableInvalidOwner",
      "type": "error"
    },
    {
      "inputs": [
        {
          "internalType": "address",
          "name": "account",
          "type": "address"
        }
      ],
      "name": "OwnableUnauthorizedAccount",
      "type": "error"
    },
    {
      "inputs": [],
      "name": "PaidMintUnavailable",
      "type": "error"
    },
    {
      "inputs": [],
      "name": "PublicMintUnavailable",
      "type": "error"
    },
    {
      "inputs": [],
      "name": "ReentrancyGuardReentrantCall",
      "type": "error"
    },
    {
      "inputs": [],
      "name": "SBTCannotBeApproved",
      "type": "error"
    },
    {
      "inputs": [],
      "name": "SupplyOrLimitExceeded",
      "type": "error"
    },
    {
      "inputs": [],
      "name": "TransferFailed",
      "type": "error"
    },
    {
      "inputs": [],
      "name": "TransferNotAllowed",
      "type": "error"
    },
    {
      "inputs": [],
      "name": "WLNotActive",
      "type": "error"
    },
    {
      "anonymous": false,
      "inputs": [
        {
          "indexed": true,
          "internalType": "address",
          "name": "account",
          "type": "address"
        },
        {
          "indexed": false,
          "internalType": "uint256",
          "name": "t",
          "type": "uint256"
        }
      ],
      "name": "AccountPaused",
      "type": "event"
    },
    {
      "anonymous": false,
      "inputs": [
        {
          "indexed": true,
          "internalType": "address",
          "name": "account",
          "type": "address"
        },
        {
          "indexed": false,
          "internalType": "uint256",
          "name": "t",
          "type": "uint256"
        }
      ],
      "name": "AccountUnpaused",
      "type": "event"
    },
    {
      "anonymous": false,
      "inputs": [
        {
          "indexed": true,
          "internalType": "address",
          "name": "owner",
          "type": "address"
        },
        {
          "indexed": true,
          "internalType": "address",
          "name": "approved",
          "type": "address"
        },
        {
          "indexed": true,
          "internalType": "uint256",
          "name": "tokenId",
          "type": "uint256"
        }
      ],
      "name": "Approval",
      "type": "event"
    },
    {
      "anonymous": false,
      "inputs": [
        {
          "indexed": true,
          "internalType": "address",
          "name": "owner",
          "type": "address"
        },
        {
          "indexed": true,
          "internalType": "address",
          "name": "operator",
          "type": "address"
        },
        {
          "indexed": false,
          "internalType": "bool",
          "name": "approved",
          "type": "bool"
        }
      ],
      "name": "ApprovalForAll",
      "type": "event"
    },
    {
      "anonymous": false,
      "inputs": [
        {
          "indexed": true,
          "internalType": "address",
          "name": "from",
          "type": "address"
        },
        {
          "indexed": true,
          "internalType": "uint256",
          "name": "id",
          "type": "uint256"
        },
        {
          "indexed": false,
          "internalType": "uint256",
          "name": "t",
          "type": "uint256"
        }
      ],
      "name": "Burned",
      "type": "event"
    },
    {
      "anonymous": false,
      "inputs": [
        {
          "indexed": true,
          "internalType": "uint256",
          "name": "id",
          "type": "uint256"
        },
        {
          "indexed": true,
          "internalType": "address",
          "name": "f",
          "type": "address"
        },
        {
          "indexed": true,
          "internalType": "address",
          "name": "t",
          "type": "address"
        },
        {
          "indexed": false,
          "internalType": "address",
          "name": "o",
          "type": "address"
        },
        {
          "indexed": false,
          "internalType": "string",
          "name": "r",
          "type": "string"
        },
        {
          "indexed": false,
          "internalType": "uint256",
          "name": "tm",
          "type": "uint256"
        }
      ],
      "name": "Emergency",
      "type": "event"
    },
    {
      "anonymous": false,
      "inputs": [
        {
          "indexed": true,
          "internalType": "address",
          "name": "to",
          "type": "address"
        },
        {
          "indexed": true,
          "internalType": "uint256",
          "name": "id",
          "type": "uint256"
        },
        {
          "indexed": false,
          "internalType": "enum BearthNFT.Phase",
          "name": "p",
          "type": "uint8"
        },
        {
          "indexed": false,
          "internalType": "uint256",
          "name": "t",
          "type": "uint256"
        },
        {
          "indexed": false,
          "internalType": "bool",
          "name": "s",
          "type": "bool"
        }
      ],
      "name": "Minted",
      "type": "event"
    },
    {
      "anonymous": false,
      "inputs": [
        {
          "indexed": true,
          "internalType": "address",
          "name": "previousOwner",
          "type": "address"
        },
        {
          "indexed": true,
          "internalType": "address",
          "name": "newOwner",
          "type": "address"
        }
      ],
      "name": "OwnershipTransferred",
      "type": "event"
    },
    {
      "anonymous": false,
      "inputs": [
        {
          "indexed": false,
          "internalType": "address",
          "name": "account",
          "type": "address"
        }
      ],
      "name": "Paused",
      "type": "event"
    },
    {
      "anonymous": false,
      "inputs": [
        {
          "indexed": false,
          "internalType": "enum BearthNFT.Phase",
          "name": "p",
          "type": "uint8"
        },
        {
          "indexed": false,
          "internalType": "uint256",
          "name": "t",
          "type": "uint256"
        }
      ],
      "name": "PhaseChanged",
      "type": "event"
    },
    {
      "anonymous": false,
      "inputs": [
        {
          "indexed": false,
          "internalType": "string",
          "name": "u",
          "type": "string"
        },
        {
          "indexed": false,
          "internalType": "uint256",
          "name": "t",
          "type": "uint256"
        }
      ],
      "name": "Revealed",
      "type": "event"
    },
    {
      "anonymous": false,
      "inputs": [
        {
          "indexed": true,
          "internalType": "bytes32",
          "name": "role",
          "type": "bytes32"
        },
        {
          "indexed": true,
          "internalType": "bytes32",
          "name": "previousAdminRole",
          "type": "bytes32"
        },
        {
          "indexed": true,
          "internalType": "bytes32",
          "name": "newAdminRole",
          "type": "bytes32"
        }
      ],
      "name": "RoleAdminChanged",
      "type": "event"
    },
    {
      "anonymous": false,
      "inputs": [
        {
          "indexed": true,
          "internalType": "bytes32",
          "name": "role",
          "type": "bytes32"
        },
        {
          "indexed": true,
          "internalType": "address",
          "name": "account",
          "type": "address"
        },
        {
          "indexed": true,
          "internalType": "address",
          "name": "sender",
          "type": "address"
        }
      ],
      "name": "RoleGranted",
      "type": "event"
    },
    {
      "anonymous": false,
      "inputs": [
        {
          "indexed": true,
          "internalType": "bytes32",
          "name": "role",
          "type": "bytes32"
        },
        {
          "indexed": true,
          "internalType": "address",
          "name": "account",
          "type": "address"
        },
        {
          "indexed": true,
          "internalType": "address",
          "name": "sender",
          "type": "address"
        }
      ],
      "name": "RoleRevoked",
      "type": "event"
    },
    {
      "anonymous": false,
      "inputs": [
        {
          "indexed": false,
          "internalType": "bool",
          "name": "e",
          "type": "bool"
        }
      ],
      "name": "SBTChanged",
      "type": "event"
    },
    {
      "anonymous": false,
      "inputs": [
        {
          "indexed": true,
          "internalType": "address",
          "name": "from",
          "type": "address"
        },
        {
          "indexed": true,
          "internalType": "address",
          "name": "to",
          "type": "address"
        },
        {
          "indexed": true,
          "internalType": "uint256",
          "name": "tokenId",
          "type": "uint256"
        }
      ],
      "name": "Transfer",
      "type": "event"
    },
    {
      "anonymous": false,
      "inputs": [
        {
          "indexed": false,
          "internalType": "address",
          "name": "account",
          "type": "address"
        }
      ],
      "name": "Unpaused",
      "type": "event"
    },
    {
      "anonymous": false,
      "inputs": [
        {
          "indexed": false,
          "internalType": "bytes32",
          "name": "r",
          "type": "bytes32"
        }
      ],
      "name": "WLRootSet",
      "type": "event"
    },
    {
      "anonymous": false,
      "inputs": [
        {
          "indexed": false,
          "internalType": "bytes32",
          "name": "r",
          "type": "bytes32"
        },
        {
          "indexed": false,
          "internalType": "uint256",
          "name": "s",
          "type": "uint256"
        },
        {
          "indexed": false,
          "internalType": "uint256",
          "name": "e",
          "type": "uint256"
        }
      ],
      "name": "WLSet",
      "type": "event"
    },
    {
      "anonymous": false,
      "inputs": [
        {
          "indexed": false,
          "internalType": "uint256",
          "name": "s",
          "type": "uint256"
        },
        {
          "indexed": false,
          "internalType": "uint256",
          "name": "e",
          "type": "uint256"
        }
      ],
      "name": "WLTimesSet",
      "type": "event"
    },
    {
      "inputs": [],
      "name": "ACCOUNT_PAUSER_ROLE",
      "outputs": [
        {
          "internalType": "bytes32",
          "name": "",
          "type": "bytes32"
        }
      ],
      "stateMutability": "view",
      "type": "function"
    },
    {
      "inputs": [],
      "name": "DEFAULT_ADMIN_ROLE",
      "outputs": [
        {
          "internalType": "bytes32",
          "name": "",
          "type": "bytes32"
        }
      ],
      "stateMutability": "view",
      "type": "function"
    },
    {
      "inputs": [],
      "name": "EMERGENCY_ROLE",
      "outputs": [
        {
          "internalType": "bytes32",
          "name": "",
          "type": "bytes32"
        }
      ],
      "stateMutability": "view",
      "type": "function"
    },
    {
      "inputs": [],
      "name": "MAX_SUPPLY",
      "outputs": [
        {
          "internalType": "uint256",
          "name": "",
          "type": "uint256"
        }
      ],
      "stateMutability": "view",
      "type": "function"
    },
    {
      "inputs": [],
      "name": "PAUSER_ROLE",
      "outputs": [
        {
          "internalType": "bytes32",
          "name": "",
          "type": "bytes32"
        }
      ],
      "stateMutability": "view",
      "type": "function"
    },
    {
      "inputs": [],
      "name": "PRICE",
      "outputs": [
        {
          "internalType": "uint256",
          "name": "",
          "type": "uint256"
        }
      ],
      "stateMutability": "view",
      "type": "function"
    },
    {
      "inputs": [],
      "name": "REVEAL_ROLE",
      "outputs": [
        {
          "internalType": "bytes32",
          "name": "",
          "type": "bytes32"
        }
      ],
      "stateMutability": "view",
      "type": "function"
    },
    {
      "inputs": [],
      "name": "ROYALTY_ROLE",
      "outputs": [
        {
          "internalType": "bytes32",
          "name": "",
          "type": "bytes32"
        }
      ],
      "stateMutability": "view",
      "type": "function"
    },
    {
      "inputs": [],
      "name": "STAGE1_SUPPLY",
      "outputs": [
        {
          "internalType": "uint256",
          "name": "",
          "type": "uint256"
        }
      ],
      "stateMutability": "view",
      "type": "function"
    },
    {
      "inputs": [],
      "name": "WITHDRAWER_ROLE",
      "outputs": [
        {
          "internalType": "bytes32",
          "name": "",
          "type": "bytes32"
        }
      ],
      "stateMutability": "view",
      "type": "function"
    },
    {
      "inputs": [],
      "name": "WL_ROLE",
      "outputs": [
        {
          "internalType": "bytes32",
          "name": "",
          "type": "bytes32"
        }
      ],
      "stateMutability": "view",
      "type": "function"
    },
    {
      "inputs": [
        {
          "internalType": "address",
          "name": "to",
          "type": "address"
        },
        {
          "internalType": "uint256",
          "name": "id",
          "type": "uint256"
        }
      ],
      "name": "approve",
      "outputs": [],
      "stateMutability": "nonpayable",
      "type": "function"
    },
    {
      "inputs": [
        {
          "internalType": "address",
          "name": "owner",
          "type": "address"
        }
      ],
      "name": "balanceOf",
      "outputs": [
        {
          "internalType": "uint256",
          "name": "",
          "type": "uint256"
        }
      ],
      "stateMutability": "view",
      "type": "function"
    },
    {
      "inputs": [
        {
          "internalType": "uint256[]",
          "name": "ids",
          "type": "uint256[]"
        }
      ],
      "name": "batchBurn",
      "outputs": [],
      "stateMutability": "nonpayable",
      "type": "function"
    },
    {
      "inputs": [
        {
          "internalType": "address",
          "name": "to",
          "type": "address"
        },
        {
          "internalType": "uint256",
          "name": "amount",
          "type": "uint256"
        }
      ],
      "name": "batchMint",
      "outputs": [],
      "stateMutability": "nonpayable",
      "type": "function"
    },
    {
      "inputs": [
        {
          "internalType": "uint256",
          "name": "id",
          "type": "uint256"
        }
      ],
      "name": "burn",
      "outputs": [],
      "stateMutability": "nonpayable",
      "type": "function"
    },
    {
      "inputs": [
        {
          "internalType": "uint256",
          "name": "id",
          "type": "uint256"
        },
        {
          "internalType": "address",
          "name": "f",
          "type": "address"
        },
        {
          "internalType": "address",
          "name": "t",
          "type": "address"
        },
        {
          "internalType": "string",
          "name": "r",
          "type": "string"
        }
      ],
      "name": "emergencyTransfer",
      "outputs": [],
      "stateMutability": "nonpayable",
      "type": "function"
    },
    {
      "inputs": [
        {
          "internalType": "uint256",
          "name": "tokenId",
          "type": "uint256"
        }
      ],
      "name": "getApproved",
      "outputs": [
        {
          "internalType": "address",
          "name": "",
          "type": "address"
        }
      ],
      "stateMutability": "view",
      "type": "function"
    },
    {
      "inputs": [],
      "name": "getData",
      "outputs": [
        {
          "internalType": "enum BearthNFT.Phase",
          "name": "",
          "type": "uint8"
        },
        {
          "internalType": "uint256",
          "name": "",
          "type": "uint256"
        },
        {
          "internalType": "uint256",
          "name": "",
          "type": "uint256"
        },
        {
          "internalType": "uint256",
          "name": "",
          "type": "uint256"
        },
        {
          "internalType": "bool",
          "name": "",
          "type": "bool"
        },
        {
          "internalType": "uint256",
          "name": "",
          "type": "uint256"
        },
        {
          "internalType": "uint256",
          "name": "",
          "type": "uint256"
        },
        {
          "internalType": "uint256",
          "name": "",
          "type": "uint256"
        },
        {
          "internalType": "uint256",
          "name": "",
          "type": "uint256"
        }
      ],
      "stateMutability": "view",
      "type": "function"
    },
    {
      "inputs": [
        {
          "internalType": "address",
          "name": "a",
          "type": "address"
        }
      ],
      "name": "getInfo",
      "outputs": [
        {
          "internalType": "uint256",
          "name": "",
          "type": "uint256"
        },
        {
          "internalType": "uint256",
          "name": "",
          "type": "uint256"
        },
        {
          "internalType": "bool",
          "name": "",
          "type": "bool"
        },
        {
          "internalType": "bool",
          "name": "",
          "type": "bool"
        },
        {
          "internalType": "bool",
          "name": "",
          "type": "bool"
        }
      ],
      "stateMutability": "view",
      "type": "function"
    },
    {
      "inputs": [
        {
          "internalType": "bytes32",
          "name": "role",
          "type": "bytes32"
        }
      ],
      "name": "getRoleAdmin",
      "outputs": [
        {
          "internalType": "bytes32",
          "name": "",
          "type": "bytes32"
        }
      ],
      "stateMutability": "view",
      "type": "function"
    },
    {
      "inputs": [
        {
          "internalType": "bytes32",
          "name": "role",
          "type": "bytes32"
        },
        {
          "internalType": "address",
          "name": "account",
          "type": "address"
        }
      ],
      "name": "grantRole",
      "outputs": [],
      "stateMutability": "nonpayable",
      "type": "function"
    },
    {
      "inputs": [
        {
          "internalType": "bytes32",
          "name": "role",
          "type": "bytes32"
        },
        {
          "internalType": "address",
          "name": "account",
          "type": "address"
        }
      ],
      "name": "hasRole",
      "outputs": [
        {
          "internalType": "bool",
          "name": "",
          "type": "bool"
        }
      ],
      "stateMutability": "view",
      "type": "function"
    },
    {
      "inputs": [
        {
          "internalType": "address",
          "name": "owner",
          "type": "address"
        },
        {
          "internalType": "address",
          "name": "operator",
          "type": "address"
        }
      ],
      "name": "isApprovedForAll",
      "outputs": [
        {
          "internalType": "bool",
          "name": "",
          "type": "bool"
        }
      ],
      "stateMutability": "view",
      "type": "function"
    },
    {
      "inputs": [
        {
          "internalType": "address",
          "name": "a",
          "type": "address"
        },
        {
          "internalType": "bytes32[]",
          "name": "p",
          "type": "bytes32[]"
        }
      ],
      "name": "isWL",
      "outputs": [
        {
          "internalType": "bool",
          "name": "",
          "type": "bool"
        }
      ],
      "stateMutability": "view",
      "type": "function"
    },
    {
      "inputs": [],
      "name": "limit1",
      "outputs": [
        {
          "internalType": "uint256",
          "name": "",
          "type": "uint256"
        }
      ],
      "stateMutability": "view",
      "type": "function"
    },
    {
      "inputs": [],
      "name": "limit2",
      "outputs": [
        {
          "internalType": "uint256",
          "name": "",
          "type": "uint256"
        }
      ],
      "stateMutability": "view",
      "type": "function"
    },
    {
      "inputs": [
        {
          "internalType": "address",
          "name": "",
          "type": "address"
        }
      ],
      "name": "minted",
      "outputs": [
        {
          "internalType": "uint256",
          "name": "",
          "type": "uint256"
        }
      ],
      "stateMutability": "view",
      "type": "function"
    },
    {
      "inputs": [],
      "name": "name",
      "outputs": [
        {
          "internalType": "string",
          "name": "",
          "type": "string"
        }
      ],
      "stateMutability": "view",
      "type": "function"
    },
    {
      "inputs": [],
      "name": "owner",
      "outputs": [
        {
          "internalType": "address",
          "name": "",
          "type": "address"
        }
      ],
      "stateMutability": "view",
      "type": "function"
    },
    {
      "inputs": [
        {
          "internalType": "uint256",
          "name": "tokenId",
          "type": "uint256"
        }
      ],
      "name": "ownerOf",
      "outputs": [
        {
          "internalType": "address",
          "name": "",
          "type": "address"
        }
      ],
      "stateMutability": "view",
      "type": "function"
    },
    {
      "inputs": [
        {
          "internalType": "uint256",
          "name": "q",
          "type": "uint256"
        }
      ],
      "name": "paidMint",
      "outputs": [],
      "stateMutability": "payable",
      "type": "function"
    },
    {
      "inputs": [],
      "name": "pause",
      "outputs": [],
      "stateMutability": "nonpayable",
      "type": "function"
    },
    {
      "inputs": [
        {
          "internalType": "address",
          "name": "account",
          "type": "address"
        }
      ],
      "name": "pauseAccount",
      "outputs": [],
      "stateMutability": "nonpayable",
      "type": "function"
    },
    {
      "inputs": [],
      "name": "paused",
      "outputs": [
        {
          "internalType": "bool",
          "name": "",
          "type": "bool"
        }
      ],
      "stateMutability": "view",
      "type": "function"
    },
    {
      "inputs": [
        {
          "internalType": "address",
          "name": "",
          "type": "address"
        }
      ],
      "name": "pausedAccounts",
      "outputs": [
        {
          "internalType": "bool",
          "name": "",
          "type": "bool"
        }
      ],
      "stateMutability": "view",
      "type": "function"
    },
    {
      "inputs": [],
      "name": "phase",
      "outputs": [
        {
          "internalType": "enum BearthNFT.Phase",
          "name": "",
          "type": "uint8"
        }
      ],
      "stateMutability": "view",
      "type": "function"
    },
    {
      "inputs": [],
      "name": "publicMint",
      "outputs": [],
      "stateMutability": "nonpayable",
      "type": "function"
    },
    {
      "inputs": [],
      "name": "renounceOwnership",
      "outputs": [],
      "stateMutability": "nonpayable",
      "type": "function"
    },
    {
      "inputs": [
        {
          "internalType": "bytes32",
          "name": "role",
          "type": "bytes32"
        },
        {
          "internalType": "address",
          "name": "callerConfirmation",
          "type": "address"
        }
      ],
      "name": "renounceRole",
      "outputs": [],
      "stateMutability": "nonpayable",
      "type": "function"
    },
    {
      "inputs": [
        {
          "internalType": "string",
          "name": "u",
          "type": "string"
        }
      ],
      "name": "reveal",
      "outputs": [],
      "stateMutability": "nonpayable",
      "type": "function"
    },
    {
      "inputs": [],
      "name": "revealCount",
      "outputs": [
        {
          "internalType": "uint256",
          "name": "",
          "type": "uint256"
        }
      ],
      "stateMutability": "view",
      "type": "function"
    },
    {
      "inputs": [
        {
          "internalType": "bytes32",
          "name": "role",
          "type": "bytes32"
        },
        {
          "internalType": "address",
          "name": "account",
          "type": "address"
        }
      ],
      "name": "revokeRole",
      "outputs": [],
      "stateMutability": "nonpayable",
      "type": "function"
    },
    {
      "inputs": [],
      "name": "root",
      "outputs": [
        {
          "internalType": "bytes32",
          "name": "",
          "type": "bytes32"
        }
      ],
      "stateMutability": "view",
      "type": "function"
    },
    {
      "inputs": [
        {
          "internalType": "uint256",
          "name": "tokenId",
          "type": "uint256"
        },
        {
          "internalType": "uint256",
          "name": "salePrice",
          "type": "uint256"
        }
      ],
      "name": "royaltyInfo",
      "outputs": [
        {
          "internalType": "address",
          "name": "receiver",
          "type": "address"
        },
        {
          "internalType": "uint256",
          "name": "amount",
          "type": "uint256"
        }
      ],
      "stateMutability": "view",
      "type": "function"
    },
    {
      "inputs": [
        {
          "internalType": "address",
          "name": "from",
          "type": "address"
        },
        {
          "internalType": "address",
          "name": "to",
          "type": "address"
        },
        {
          "internalType": "uint256",
          "name": "tokenId",
          "type": "uint256"
        }
      ],
      "name": "safeTransferFrom",
      "outputs": [],
      "stateMutability": "nonpayable",
      "type": "function"
    },
    {
      "inputs": [
        {
          "internalType": "address",
          "name": "from",
          "type": "address"
        },
        {
          "internalType": "address",
          "name": "to",
          "type": "address"
        },
        {
          "internalType": "uint256",
          "name": "tokenId",
          "type": "uint256"
        },
        {
          "internalType": "bytes",
          "name": "data",
          "type": "bytes"
        }
      ],
      "name": "safeTransferFrom",
      "outputs": [],
      "stateMutability": "nonpayable",
      "type": "function"
    },
    {
      "inputs": [],
      "name": "sbt",
      "outputs": [
        {
          "internalType": "bool",
          "name": "",
          "type": "bool"
        }
      ],
      "stateMutability": "view",
      "type": "function"
    },
    {
      "inputs": [
        {
          "internalType": "address",
          "name": "op",
          "type": "address"
        },
        {
          "internalType": "bool",
          "name": "a",
          "type": "bool"
        }
      ],
      "name": "setApprovalForAll",
      "outputs": [],
      "stateMutability": "nonpayable",
      "type": "function"
    },
    {
      "inputs": [
        {
          "internalType": "uint256",
          "name": "l1",
          "type": "uint256"
        },
        {
          "internalType": "uint256",
          "name": "l2",
          "type": "uint256"
        }
      ],
      "name": "setLimits",
      "outputs": [],
      "stateMutability": "nonpayable",
      "type": "function"
    },
    {
      "inputs": [
        {
          "internalType": "enum BearthNFT.Phase",
          "name": "p",
          "type": "uint8"
        }
      ],
      "name": "setPhase",
      "outputs": [],
      "stateMutability": "nonpayable",
      "type": "function"
    },
    {
      "inputs": [
        {
          "internalType": "address",
          "name": "r",
          "type": "address"
        },
        {
          "internalType": "uint96",
          "name": "b",
          "type": "uint96"
        }
      ],
      "name": "setRoyalty",
      "outputs": [],
      "stateMutability": "nonpayable",
      "type": "function"
    },
    {
      "inputs": [
        {
          "internalType": "bool",
          "name": "e",
          "type": "bool"
        }
      ],
      "name": "setSBT",
      "outputs": [],
      "stateMutability": "nonpayable",
      "type": "function"
    },
    {
      "inputs": [
        {
          "internalType": "bytes32",
          "name": "r",
          "type": "bytes32"
        },
        {
          "internalType": "uint256",
          "name": "s",
          "type": "uint256"
        },
        {
          "internalType": "uint256",
          "name": "e",
          "type": "uint256"
        }
      ],
      "name": "setWL",
      "outputs": [],
      "stateMutability": "nonpayable",
      "type": "function"
    },
    {
      "inputs": [
        {
          "internalType": "uint256",
          "name": "s",
          "type": "uint256"
        },
        {
          "internalType": "uint256",
          "name": "e",
          "type": "uint256"
        }
      ],
      "name": "setWLTimes",
      "outputs": [],
      "stateMutability": "nonpayable",
      "type": "function"
    },
    {
      "inputs": [
        {
          "internalType": "bytes32",
          "name": "r",
          "type": "bytes32"
        }
      ],
      "name": "setWhitelist",
      "outputs": [],
      "stateMutability": "nonpayable",
      "type": "function"
    },
    {
      "inputs": [],
      "name": "stage1Minted",
      "outputs": [
        {
          "internalType": "uint256",
          "name": "",
          "type": "uint256"
        }
      ],
      "stateMutability": "view",
      "type": "function"
    },
    {
      "inputs": [
        {
          "internalType": "bytes4",
          "name": "i",
          "type": "bytes4"
        }
      ],
      "name": "supportsInterface",
      "outputs": [
        {
          "internalType": "bool",
          "name": "",
          "type": "bool"
        }
      ],
      "stateMutability": "view",
      "type": "function"
    },
    {
      "inputs": [],
      "name": "symbol",
      "outputs": [
        {
          "internalType": "string",
          "name": "",
          "type": "string"
        }
      ],
      "stateMutability": "view",
      "type": "function"
    },
    {
      "inputs": [
        {
          "internalType": "uint256",
          "name": "index",
          "type": "uint256"
        }
      ],
      "name": "tokenByIndex",
      "outputs": [
        {
          "internalType": "uint256",
          "name": "",
          "type": "uint256"
        }
      ],
      "stateMutability": "view",
      "type": "function"
    },
    {
      "inputs": [
        {
          "internalType": "address",
          "name": "owner",
          "type": "address"
        },
        {
          "internalType": "uint256",
          "name": "index",
          "type": "uint256"
        }
      ],
      "name": "tokenOfOwnerByIndex",
      "outputs": [
        {
          "internalType": "uint256",
          "name": "",
          "type": "uint256"
        }
      ],
      "stateMutability": "view",
      "type": "function"
    },
    {
      "inputs": [
        {
          "internalType": "uint256",
          "name": "id",
          "type": "uint256"
        }
      ],
      "name": "tokenURI",
      "outputs": [
        {
          "internalType": "string",
          "name": "",
          "type": "string"
        }
      ],
      "stateMutability": "view",
      "type": "function"
    },
    {
      "inputs": [],
      "name": "totalSupply",
      "outputs": [
        {
          "internalType": "uint256",
          "name": "",
          "type": "uint256"
        }
      ],
      "stateMutability": "view",
      "type": "function"
    },
    {
      "inputs": [
        {
          "internalType": "address",
          "name": "from",
          "type": "address"
        },
        {
          "internalType": "address",
          "name": "to",
          "type": "address"
        },
        {
          "internalType": "uint256",
          "name": "tokenId",
          "type": "uint256"
        }
      ],
      "name": "transferFrom",
      "outputs": [],
      "stateMutability": "nonpayable",
      "type": "function"
    },
    {
      "inputs": [
        {
          "internalType": "address",
          "name": "newOwner",
          "type": "address"
        }
      ],
      "name": "transferOwnership",
      "outputs": [],
      "stateMutability": "nonpayable",
      "type": "function"
    },
    {
      "inputs": [],
      "name": "unpause",
      "outputs": [],
      "stateMutability": "nonpayable",
      "type": "function"
    },
    {
      "inputs": [
        {
          "internalType": "address",
          "name": "account",
          "type": "address"
        }
      ],
      "name": "unpauseAccount",
      "outputs": [],
      "stateMutability": "nonpayable",
      "type": "function"
    },
    {
      "inputs": [
        {
          "internalType": "address payable",
          "name": "t",
          "type": "address"
        }
      ],
      "name": "withdraw",
      "outputs": [],
      "stateMutability": "nonpayable",
      "type": "function"
    },
    {
      "inputs": [],
      "name": "wlEnd",
      "outputs": [
        {
          "internalType": "uint256",
          "name": "",
          "type": "uint256"
        }
      ],
      "stateMutability": "view",
      "type": "function"
    },
    {
      "inputs": [
        {
          "internalType": "bytes32[]",
          "name": "p",
          "type": "bytes32[]"
        }
      ],
      "name": "wlMint",
      "outputs": [],
      "stateMutability": "nonpayable",
      "type": "function"
    },
    {
      "inputs": [
        {
          "internalType": "address",
          "name": "",
          "type": "address"
        }
      ],
      "name": "wlMinted",
      "outputs": [
        {
          "internalType": "uint256",
          "name": "",
          "type": "uint256"
        }
      ],
      "stateMutability": "view",
      "type": "function"
    },
    {
      "inputs": [],
      "name": "wlStart",
      "outputs": [
        {
          "internalType": "uint256",
          "name": "",
          "type": "uint256"
        }
      ],
      "stateMutability": "view",
      "type": "function"
    }
  ],
  "bytecode": "0x608060405260016012556003601355348015610019575f5ffd5b50604051614293380380614293833981016040819052610038916104e0565b3385855f6100468382610614565b5060016100538282610614565b505050600161006c61006961025c60201b60201c565b90565b556001600160a01b03811661009b57604051631e4fbdf760e01b81525f60048201526024015b60405180910390fd5b6100a481610280565b506001600160a01b03821615806100ba57508251155b806100cc57506001600160a01b038116155b156100ea57604051635435b28960e11b815260040160405180910390fd5b60186100f68482610614565b506016805460ff1916600117905561010e5f836102d9565b506101195f826102d9565b506101447fdcafc294b1f1d23b81c2d8f3b760d3d1ada4d9e4f865ba6e5173f9560600d754826102d9565b5061016e7e6b97d3b00e0cfa27932db8d8710f84e2b8d72f339a1e910bf97a09597e99d6826102d9565b506101997f10dac8c06a04bec0b551627dad28bc00d6516b0caacd1c7b345fcdb5211334e4826102d9565b506101c47f65d7a28e3265b37a6474929f336521b332c1681b933f6cb9f3376673440d862a826102d9565b506101ef7feb54e1feee3ae17add098cbf58a47457bf5f7c3a89ceab263cbdb01b3da6d98e826102d9565b5061021a7fbf233dd2aafeb4d50879c4aa5c81e96d92f6e6945c906a58f9f2d1c1631b4b26826102d9565b506102457fbc3bede9c13127d9f696fc0d163537e2d7209c1bcb089ad5680b00700535ea4c826102d9565b50610252336101f4610386565b50505050506106ce565b7f9b779b17422d0df92223018b32b4d1fa46e071723d6817e2486d003becc55f0090565b600d80546001600160a01b03838116610100818102610100600160a81b031985161790945560405193909204169182907f8be0079c531659141344cd1fd0a4f28419497f9722a3daafe3b4186f6b6457e0905f90a35050565b5f828152600c602090815260408083206001600160a01b038516845290915281205460ff1661037d575f838152600c602090815260408083206001600160a01b03861684529091529020805460ff191660011790556103353390565b6001600160a01b0316826001600160a01b0316847f2f8788117e7eff1d82e926ec794901d17c78024a50270940304540a733656f0d60405160405180910390a4506001610380565b505f5b92915050565b6127106001600160601b0382168110156103c557604051636f483d0960e01b81526001600160601b038316600482015260248101829052604401610092565b6001600160a01b0383166103ee57604051635b6cc80560e11b81525f6004820152602401610092565b50604080518082019091526001600160a01b039092168083526001600160601b039091166020909201829052600160a01b90910217600a55565b634e487b7160e01b5f52604160045260245ffd5b5f82601f83011261044b575f5ffd5b81516001600160401b0381111561046457610464610428565b604051601f8201601f19908116603f011681016001600160401b038111828210171561049257610492610428565b6040528181528382016020018510156104a9575f5ffd5b8160208501602083015e5f918101602001919091529392505050565b80516001600160a01b03811681146104db575f5ffd5b919050565b5f5f5f5f5f60a086880312156104f4575f5ffd5b85516001600160401b03811115610509575f5ffd5b6105158882890161043c565b602088015190965090506001600160401b03811115610532575f5ffd5b61053e8882890161043c565b604088015190955090506001600160401b0381111561055b575f5ffd5b6105678882890161043c565b935050610576606087016104c5565b9150610584608087016104c5565b90509295509295909350565b600181811c908216806105a457607f821691505b6020821081036105c257634e487b7160e01b5f52602260045260245ffd5b50919050565b601f82111561060f57805f5260205f20601f840160051c810160208510156105ed5750805b601f840160051c820191505b8181101561060c575f81556001016105f9565b50505b505050565b81516001600160401b0381111561062d5761062d610428565b6106418161063b8454610590565b846105c8565b6020601f821160018114610673575f831561065c5750848201515b5f19600385901b1c1916600184901b17845561060c565b5f84815260208120601f198516915b828110156106a25787850151825560209485019460019092019101610682565b50848210156106bf57868401515f19600387901b60f8161c191681555b50505050600190811b01905550565b613bb8806106db5f395ff3fe60806040526004361061040b575f3560e01c806378a9238011610215578063c4590d3f1161011e578063dc8e92ea116100a8578063eebfbe2311610078578063eebfbe2314610cbe578063f2fde38b14610cdd578063f64a8f2614610cfc578063fcd0477614610d11578063ffdd5cf114610d30575f5ffd5b8063dc8e92ea14610c38578063e63ab1e914610c57578063e985e9c514610c8a578063ebf0c71714610ca9575f5ffd5b8063cdb8322e116100ee578063cdb8322e14610ba2578063cee232bb14610bb7578063d16825ac14610bcc578063d547741f14610beb578063d70299ca14610c0a575f5ffd5b8063c4590d3f14610b11578063c87b56dd14610b30578063ca8191d614610b4f578063cb9fcffb14610b6f575f5ffd5b8063a217fddf1161019f578063b1324f7b1161016f578063b1324f7b14610a6e578063b1c9fe6e14610a87578063b88d4fde14610ab4578063bf86637214610ad3578063c03afb5914610af2575f5ffd5b8063a217fddf14610a08578063a22cb46514610a1b578063aed5be3514610a3a578063b0ea7dcf14610a4f575f5ffd5b80638da5cb5b116101e55780638da5cb5b146109755780638f2fc60b1461099757806391d14854146109b657806394408b9a146109d557806395d89b41146109f4575f5ffd5b806378a92380146108e95780638456cb591461091457806385f438c1146109285780638d859f3e1461095b575f5ffd5b80633f4ba83a116103175780635b66b851116102a15780636352211e116102715780636352211e1461086557806365cde7331461088457806370a0823114610897578063715018a6146108b65780637878fe39146108ca575f5ffd5b80635b66b851146107d45780635c975abb146107e95780635f1770a21461080057806361a1336114610832575f5ffd5b8063440bc7f3116102e7578063440bc7f314610739578063484d1ad6146107585780634c261247146107775780634f6ccce71461079657806351cff8d9146107b5575f5ffd5b80633f4ba83a146106c857806342842e0e146106dc57806342966c68146106fb57806343508b051461071a575f5ffd5b806323b872dd116103985780632f2ff15d116103685780632f2ff15d146106055780632f745c591461062457806332cb6b0c1461064357806336568abe146106585780633bc5de3014610677575f5ffd5b806323b872dd14610566578063248a9ca31461058557806326092b83146105b35780632a55205a146105c7575f5ffd5b8063081812fc116103de578063081812fc1461049c578063095ea7b3146104d357806318160ddd146104f45780631e7269c51461050857806320df435914610533575f5ffd5b806301ffc9a71461040f5780630489cf6e1461044357806306fdde0314610466578063077fce5214610487575b5f5ffd5b34801561041a575f5ffd5b5061042e61042936600461320a565b610d7f565b60405190151581526020015b60405180910390f35b34801561044e575f5ffd5b50610458600f5481565b60405190815260200161043a565b348015610471575f5ffd5b5061047a610d8f565b60405161043a9190613253565b348015610492575f5ffd5b50610458601a5481565b3480156104a7575f5ffd5b506104bb6104b6366004613265565b610e1e565b6040516001600160a01b03909116815260200161043a565b3480156104de575f5ffd5b506104f26104ed366004613290565b610e45565b005b3480156104ff575f5ffd5b50600854610458565b348015610513575f5ffd5b506104586105223660046132ba565b60146020525f908152604090205481565b34801561053e575f5ffd5b506104587fbf233dd2aafeb4d50879c4aa5c81e96d92f6e6945c906a58f9f2d1c1631b4b2681565b348015610571575f5ffd5b506104f26105803660046132d5565b610e77565b348015610590575f5ffd5b5061045861059f366004613265565b5f908152600c602052604090206001015490565b3480156105be575f5ffd5b506104f2610f05565b3480156105d2575f5ffd5b506105e66105e1366004613313565b61103a565b604080516001600160a01b03909316835260208301919091520161043a565b348015610610575f5ffd5b506104f261061f366004613333565b6110bf565b34801561062f575f5ffd5b5061045861063e366004613290565b6110e3565b34801561064e575f5ffd5b5061045861025e81565b348015610663575f5ffd5b506104f2610672366004613333565b611146565b348015610682575f5ffd5b50600d54601954601a5460165460175460125460135460405161043a97600160a81b900460ff908116979661025e96909591169390929091666ba5b080b1c00090613395565b3480156106d3575f5ffd5b506104f261117e565b3480156106e7575f5ffd5b506104f26106f63660046132d5565b6111b3565b348015610706575f5ffd5b506104f2610715366004613265565b6111cd565b348015610725575f5ffd5b506104f2610734366004613290565b611248565b348015610744575f5ffd5b506104f2610753366004613265565b611318565b348015610763575f5ffd5b506104f26107723660046132ba565b61136c565b348015610782575f5ffd5b506104f261079136600461346d565b6113f6565b3480156107a1575f5ffd5b506104586107b0366004613265565b611492565b3480156107c0575f5ffd5b506104f26107cf3660046132ba565b6114e7565b3480156107df575f5ffd5b5061045860105481565b3480156107f4575f5ffd5b50600d5460ff1661042e565b34801561080b575f5ffd5b506104587e6b97d3b00e0cfa27932db8d8710f84e2b8d72f339a1e910bf97a09597e99d681565b34801561083d575f5ffd5b506104587fbc3bede9c13127d9f696fc0d163537e2d7209c1bcb089ad5680b00700535ea4c81565b348015610870575f5ffd5b506104bb61087f366004613265565b6115ea565b6104f2610892366004613265565b6115f4565b3480156108a2575f5ffd5b506104586108b13660046132ba565b611764565b3480156108c1575f5ffd5b506104f26117a9565b3480156108d5575f5ffd5b506104f26108e43660046134b2565b6117ba565b3480156108f4575f5ffd5b506104586109033660046132ba565b60116020525f908152604090205481565b34801561091f575f5ffd5b506104f2611854565b348015610933575f5ffd5b506104587f10dac8c06a04bec0b551627dad28bc00d6516b0caacd1c7b345fcdb5211334e481565b348015610966575f5ffd5b50610458666ba5b080b1c00081565b348015610980575f5ffd5b50600d5461010090046001600160a01b03166104bb565b3480156109a2575f5ffd5b506104f26109b13660046134db565b611886565b3480156109c1575f5ffd5b5061042e6109d0366004613333565b6118f8565b3480156109e0575f5ffd5b506104f26109ef3660046132ba565b611922565b3480156109ff575f5ffd5b5061047a61199d565b348015610a13575f5ffd5b506104585f81565b348015610a26575f5ffd5b506104f2610a35366004613526565b6119ac565b348015610a45575f5ffd5b5061045860175481565b348015610a5a575f5ffd5b506104f2610a6936600461359a565b6119da565b348015610a79575f5ffd5b5060165461042e9060ff1681565b348015610a92575f5ffd5b50600d54610aa790600160a81b900460ff1681565b60405161043a91906135d9565b348015610abf575f5ffd5b506104f2610ace3660046135e7565b611bf1565b348015610ade575f5ffd5b5061042e610aed366004613662565b611c09565b348015610afd575f5ffd5b506104f2610b0c3660046136b3565b611c87565b348015610b1c575f5ffd5b506104f2610b2b366004613313565b611cf5565b348015610b3b575f5ffd5b5061047a610b4a366004613265565b611d31565b348015610b5a575f5ffd5b506104585f516020613b635f395f51905f5281565b348015610b7a575f5ffd5b506104587feb54e1feee3ae17add098cbf58a47457bf5f7c3a89ceab263cbdb01b3da6d98e81565b348015610bad575f5ffd5b5061045861012f81565b348015610bc2575f5ffd5b5061045860135481565b348015610bd7575f5ffd5b506104f2610be63660046136d1565b611d6f565b348015610bf6575f5ffd5b506104f2610c05366004613333565b611e54565b348015610c15575f5ffd5b5061042e610c243660046132ba565b60156020525f908152604090205460ff1681565b348015610c43575f5ffd5b506104f2610c5236600461359a565b611e78565b348015610c62575f5ffd5b506104587f65d7a28e3265b37a6474929f336521b332c1681b933f6cb9f3376673440d862a81565b348015610c95575f5ffd5b5061042e610ca436600461376a565b611f6a565b348015610cb4575f5ffd5b50610458600e5481565b348015610cc9575f5ffd5b506104f2610cd8366004613796565b611f97565b348015610ce8575f5ffd5b506104f2610cf73660046132ba565b611fe0565b348015610d07575f5ffd5b5061045860125481565b348015610d1c575f5ffd5b506104f2610d2b366004613313565b61201a565b348015610d3b575f5ffd5b50610d4f610d4a3660046132ba565b6120a6565b6040805195865260208601949094529115159284019290925290151560608301521515608082015260a00161043a565b5f610d8982612219565b92915050565b60605f8054610d9d906137af565b80601f0160208091040260200160405190810160405280929190818152602001828054610dc9906137af565b8015610e145780601f10610deb57610100808354040283529160200191610e14565b820191905f5260205f20905b815481529060010190602001808311610df757829003601f168201915b5050505050905090565b5f610e288261223d565b505f828152600460205260409020546001600160a01b0316610d89565b60165460ff1615610e695760405163a36582a560e01b815260040160405180910390fd5b610e738282612275565b5050565b6001600160a01b038216610ea557604051633250574960e11b81525f60048201526024015b60405180910390fd5b5f610eb1838333612280565b9050836001600160a01b0316816001600160a01b031614610eff576040516364283d7b60e01b81526001600160a01b0380861660048301526024820184905282166044820152606401610e9c565b50505050565b610f0d61236f565b610f15612393565b6002600d54600160a81b900460ff166003811115610f3557610f35613361565b141580610f46575061025e60195410155b80610f55575061012f601a5410155b80610f705750601254335f9081526014602052604090205410155b15610f8e57604051637338bcbd60e11b815260040160405180910390fd5b601980545f9182610f9e836137fb565b90915550335f908152601460205260408120805492935090610fbf836137fb565b9091555050601a8054905f610fd3836137fb565b9190505550610fe233826123ae565b600d54601654604051839233925f516020613b235f395f51905f52926110199260ff600160a81b9091048116924292911690613813565b60405180910390a35061103860015f516020613b435f395f51905f5255565b565b5f828152600b6020526040812080548291906001600160a01b03811690600160a01b90046001600160601b03168161108d575050600a546001600160a01b03811690600160a01b90046001600160601b03165b5f6127106110a46001600160601b03841689613837565b6110ae919061384e565b9295509193505050505b9250929050565b5f828152600c60205260409020600101546110d9816123c7565b610eff83836123d1565b5f6110ed83611764565b821061111e5760405163295f44f760e21b81526001600160a01b038416600482015260248101839052604401610e9c565b506001600160a01b03919091165f908152600660209081526040808320938352929052205490565b6001600160a01b038116331461116f5760405163334bd91960e11b815260040160405180910390fd5b6111798282612462565b505050565b7f65d7a28e3265b37a6474929f336521b332c1681b933f6cb9f3376673440d862a6111a8816123c7565b6111b06124cd565b50565b61117983838360405180602001604052805f815250611bf1565b5f818152600260205260409020546001600160a01b031633811461120457604051638cd22d1960e01b815260040160405180910390fd5b61120d8261251f565b604051428152829033907f23ff0e75edf108e3d0392d92e13e8c8a868ef19001bd49f9e94876dc46dff87f9060200160405180910390a35050565b5f611252816123c7565b6001600160a01b0383161580611266575081155b8061127f575061025e8260195461127d919061386d565b115b1561129d5760405163b21074fd60e01b815260040160405180910390fd5b5f5b82811015610eff57601980545f91826112b7836137fb565b9190505590506112c785826123ae565b600d5460165460405183926001600160a01b038916925f516020613b235f395f51905f52926113079260ff600160a81b9091048116924292911690613813565b60405180910390a35060010161129f565b5f516020613b635f395f51905f5261132f816123c7565b600e8290556040518281527f04c25ffab6010195d1d771437d381400dae559b99722a6f554ba9c6a7292085a906020015b60405180910390a15050565b7fbc3bede9c13127d9f696fc0d163537e2d7209c1bcb089ad5680b00700535ea4c611396816123c7565b6001600160a01b0382165f8181526015602052604090819020805460ff19166001179055517fe1356d1b4e335a360d5f6d316f8e6edd07a93a6e42860a1e050a39a23d407f11906113ea9042815260200190565b60405180910390a25050565b7e6b97d3b00e0cfa27932db8d8710f84e2b8d72f339a1e910bf97a09597e99d661141f816123c7565b81515f0361144057604051633ba0191160e01b815260040160405180910390fd5b601861144c83826138c4565b5060178054905f61145c836137fb565b91905055507fb8c1ac940ded1aa978d3aa731d336abbdb3a52bbd18626855a4e73e4d23eea5c824260405161136092919061397f565b5f61149c60085490565b82106114c45760405163295f44f760e21b81525f600482015260248101839052604401610e9c565b600882815481106114d7576114d76139a0565b905f5260205f2001549050919050565b7f10dac8c06a04bec0b551627dad28bc00d6516b0caacd1c7b345fcdb5211334e4611511816123c7565b611519612393565b6001600160a01b0382166115405760405163e6c4247b60e01b815260040160405180910390fd5b475f81900361156257604051636165515360e11b815260040160405180910390fd5b5f836001600160a01b0316826040515f6040518083038185875af1925050503d805f81146115ab576040519150601f19603f3d011682016040523d82523d5f602084013e6115b0565b606091505b50509050806115d2576040516312171d8360e31b815260040160405180910390fd5b5050610e7360015f516020613b435f395f51905f5255565b5f610d898261223d565b6115fc61236f565b611604612393565b6003600d54600160a81b900460ff16600381111561162457611624613361565b14158061162f575080155b80611648575061025e81601954611646919061386d565b115b1561166657604051635f65d17f60e11b815260040160405180910390fd5b601354335f9081526014602052604090205461168390839061386d565b118061169e575061169b81666ba5b080b1c000613837565b34105b156116bb5760405162c09e0d60e41b815260040160405180910390fd5b5f5b8181101561174d57601980545f91826116d5836137fb565b90915550335f9081526014602052604081208054929350906116f6836137fb565b919050555061170533826123ae565b600d54601654604051839233925f516020613b235f395f51905f529261173c9260ff600160a81b9091048116924292911690613813565b60405180910390a3506001016116bd565b506111b060015f516020613b435f395f51905f5255565b5f6001600160a01b03821661178e576040516322718ad960e21b81525f6004820152602401610e9c565b506001600160a01b03165f9081526003602052604090205490565b6117b1612557565b6110385f61258a565b5f516020613b635f395f51905f526117d1816123c7565b82821115806117e05750428211155b156117fe57604051630ecbff0560e21b815260040160405180910390fd5b600e849055600f839055601082905560408051858152602081018590529081018390527f7d9134214ed091ec1dc91e38e28e3ebcd4096c06147c71890bdd34ca6f4cba819060600160405180910390a150505050565b7f65d7a28e3265b37a6474929f336521b332c1681b933f6cb9f3376673440d862a61187e816123c7565b6111b06125e3565b7feb54e1feee3ae17add098cbf58a47457bf5f7c3a89ceab263cbdb01b3da6d98e6118b0816123c7565b6001600160a01b03831615806118d057506103e8826001600160601b0316115b156118ee576040516304e4bbf960e41b815260040160405180910390fd5b6111798383612620565b5f918252600c602090815260408084206001600160a01b0393909316845291905290205460ff1690565b7fbc3bede9c13127d9f696fc0d163537e2d7209c1bcb089ad5680b00700535ea4c61194c816123c7565b6001600160a01b0382165f8181526015602052604090819020805460ff19169055517f598a341bb3bacf68ce1b3e63186eacd1c5e12ade93d19dd1dcdecc3b77dea71a906113ea9042815260200190565b606060018054610d9d906137af565b60165460ff16156119d05760405163a36582a560e01b815260040160405180910390fd5b610e7382826126c2565b6119e261236f565b6119ea612393565b6001600d54600160a81b900460ff166003811115611a0a57611a0a613361565b141580611a185750600f5442105b80611a24575060105442115b15611a4257604051635725af9f60e11b815260040160405180910390fd5b61025e601954101580611a59575061012f601a5410155b80611a745750601254335f9081526011602052604090205410155b15611a9257604051635ba5da7b60e11b815260040160405180910390fd5b6040516bffffffffffffffffffffffff193360601b1660208201525f90603401604051602081830303815290604052805190602001209050611b0a8383808060200260200160405190810160405280939291908181526020018383602002808284375f9201919091525050600e5491508490506126cd565b611b27576040516309bde33960e01b815260040160405180910390fd5b601980545f9182611b37836137fb565b90915550335f908152601460205260408120805492935090611b58836137fb565b9091555050335f908152601160205260408120805491611b77836137fb565b9091555050601a8054905f611b8b836137fb565b9190505550611b9a33826123ae565b600d54601654604051839233925f516020613b235f395f51905f5292611bd19260ff600160a81b9091048116924292911690613813565b60405180910390a35050610e7360015f516020613b435f395f51905f5255565b611bfc848484610e77565b610eff33858585856126e2565b5f611c7f8383808060200260200160405190810160405280939291908181526020018383602002808284375f9201919091525050600e546040516bffffffffffffffffffffffff1960608b901b1660208201529092506034019050604051602081830303815290604052805190602001206126cd565b949350505050565b611c8f612557565b600d805482919060ff60a81b1916600160a81b836003811115611cb457611cb4613361565b02179055507fe65264342b0c60a079c9c89c73855ac517088348498810186d8c8ae6c7848ba18142604051611cea9291906139b4565b60405180910390a150565b611cfd612557565b811580611d08575080155b15611d265760405163e773e0a960e01b815260040160405180910390fd5b601291909155601355565b6060611d3c8261223d565b506018611d488361280a565b604051602001611d599291906139cf565b6040516020818303038152906040529050919050565b7fbf233dd2aafeb4d50879c4aa5c81e96d92f6e6945c906a58f9f2d1c1631b4b26611d99816123c7565b5f868152600260205260409020546001600160a01b038681169116141580611dc857506001600160a01b038416155b80611dd1575081155b15611def5760405163074c424d60e31b815260040160405180910390fd5b611dfa85858861289a565b836001600160a01b0316856001600160a01b0316877fd939a0ab3d907d51ef258825a7e0b42c1d74d6a523fd032fe11588e07224481a33878742604051611e449493929190613a5c565b60405180910390a4505050505050565b5f828152600c6020526040902060010154611e6e816123c7565b610eff8383612462565b5f5b81811015611179575f611eb9848484818110611e9857611e986139a0565b905060200201355f908152600260205260409020546001600160a01b031690565b9050336001600160a01b03821614611ee457604051638cd22d1960e01b815260040160405180910390fd5b611f05848484818110611ef957611ef96139a0565b9050602002013561251f565b838383818110611f1757611f176139a0565b90506020020135336001600160a01b03167f23ff0e75edf108e3d0392d92e13e8c8a868ef19001bd49f9e94876dc46dff87f42604051611f5991815260200190565b60405180910390a350600101611e7a565b6001600160a01b039182165f90815260056020908152604080832093909416825291909152205460ff1690565b611f9f612557565b6016805460ff19168215159081179091556040519081527fd8969c101aecf13f00e4e3a0b4c8be643670e8cc4fa1bd4e65b33abdc6e12b9390602001611cea565b611fe8612557565b6001600160a01b03811661201157604051631e4fbdf760e01b81525f6004820152602401610e9c565b6111b08161258a565b5f516020613b635f395f51905f52612031816123c7565b82821115806120405750428211155b1561205e57604051630ecbff0560e21b815260040160405180910390fd5b600f839055601082905560408051848152602081018490527f10413ae63b2eb5f1414ea755cc49af30987df7678db913855d3dd82b780fd961910160405180910390a1505050565b6001600160a01b0381165f90815260116020908152604080832054601490925282205482918291829182916001600d54600160a81b900460ff1660038111156120f1576120f1613361565b1480156121005750600f544210155b801561210e57506010544211155b801561213257506012546001600160a01b0389165f90815260116020526040902054105b8015612141575061025e601954105b8015612150575061012f601a54105b6002600d54600160a81b900460ff16600381111561217057612170613361565b14801561219557506012546001600160a01b038a165f90815260146020526040902054105b80156121a4575061025e601954105b80156121b3575061012f601a54105b6003600d54600160a81b900460ff1660038111156121d3576121d3613361565b1480156121f857506013546001600160a01b038b165f90815260146020526040902054105b8015612207575061025e601954105b939a9299509097509550909350915050565b5f6001600160e01b03198216637965db0b60e01b1480610d895750610d8982612947565b5f818152600260205260408120546001600160a01b031680610d8957604051637e27328960e01b815260048101849052602401610e9c565b610e7382823361296b565b5f828152600260205260408120546001600160a01b031680158015906122ae57506001600160a01b03851615155b80156122e157506122df7fbf233dd2aafeb4d50879c4aa5c81e96d92f6e6945c906a58f9f2d1c1631b4b26336118f8565b155b1561235b5760165460ff16806122f95750600d5460ff165b8061231b57506001600160a01b0381165f9081526015602052604090205460ff165b8061233d57506001600160a01b0385165f9081526015602052604090205460ff165b1561235b57604051638cd22d1960e01b815260040160405180910390fd5b612366858585612978565b95945050505050565b600d5460ff16156110385760405163d93c066560e01b815260040160405180910390fd5b61239b612a43565b60025f516020613b435f395f51905f5255565b610e73828260405180602001604052805f815250612a72565b6111b08133612a89565b5f6123dc83836118f8565b61245b575f838152600c602090815260408083206001600160a01b03861684529091529020805460ff191660011790556124133390565b6001600160a01b0316826001600160a01b0316847f2f8788117e7eff1d82e926ec794901d17c78024a50270940304540a733656f0d60405160405180910390a4506001610d89565b505f610d89565b5f61246d83836118f8565b1561245b575f838152600c602090815260408083206001600160a01b0386168085529252808320805460ff1916905551339286917ff6391f5c32d9c69d2a47ea670b442974b53935d1edc7fd64eb21e047a839171b9190a4506001610d89565b6124d5612ac2565b600d805460ff191690557f5db9ee0a495bf2e6ff9c91a7834c1ba4fdd244a5e8aa4e537bd38aeae4b073aa335b6040516001600160a01b03909116815260200160405180910390a1565b5f61252b5f835f612280565b90506001600160a01b038116610e7357604051637e27328960e01b815260048101839052602401610e9c565b600d546001600160a01b036101009091041633146110385760405163118cdaa760e01b8152336004820152602401610e9c565b600d80546001600160a01b03838116610100818102610100600160a81b031985161790945560405193909204169182907f8be0079c531659141344cd1fd0a4f28419497f9722a3daafe3b4186f6b6457e0905f90a35050565b6125eb61236f565b600d805460ff191660011790557f62e78cea01bee320cd4e420270b5ea74000d11b0c9f74754ebdbfc544b05a2586125023390565b6127106001600160601b03821681101561265f57604051636f483d0960e01b81526001600160601b038316600482015260248101829052604401610e9c565b6001600160a01b03831661268857604051635b6cc80560e11b81525f6004820152602401610e9c565b50604080518082019091526001600160a01b039092168083526001600160601b039091166020909201829052600160a01b90910217600a55565b610e73338383612ae5565b5f826126d98584612bac565b14949350505050565b6001600160a01b0383163b1561280357604051630a85bd0160e11b81526001600160a01b0384169063150b7a0290612724908890889087908790600401613aa4565b6020604051808303815f875af192505050801561275e575060408051601f3d908101601f1916820190925261275b91810190613ae0565b60015b6127c5573d80801561278b576040519150601f19603f3d011682016040523d82523d5f602084013e612790565b606091505b5080515f036127bd57604051633250574960e11b81526001600160a01b0385166004820152602401610e9c565b805160208201fd5b6001600160e01b03198116630a85bd0160e11b1461280157604051633250574960e11b81526001600160a01b0385166004820152602401610e9c565b505b5050505050565b60605f61281683612bee565b60010190505f8167ffffffffffffffff811115612835576128356133e2565b6040519080825280601f01601f19166020018201604052801561285f576020820181803683370190505b5090508181016020015b5f19016f181899199a1a9b1b9c1cb0b131b232b360811b600a86061a8153600a850494508461286957509392505050565b6001600160a01b0382166128c357604051633250574960e11b81525f6004820152602401610e9c565b5f6128cf83835f612280565b90506001600160a01b0381166128fb57604051637e27328960e01b815260048101839052602401610e9c565b836001600160a01b0316816001600160a01b031614610eff576040516364283d7b60e01b81526001600160a01b0380861660048301526024820184905282166044820152606401610e9c565b5f6001600160e01b0319821663152a902d60e11b1480610d895750610d8982612cc5565b6111798383836001612ce9565b5f5f612985858585612ded565b90506001600160a01b0381166129e1576129dc84600880545f838152600960205260408120829055600182018355919091527ff3f7a9fe364faab93b216da50a3214154f22a0a2b415b23a84c8169e8b636ee30155565b612a04565b846001600160a01b0316816001600160a01b031614612a0457612a048185612edf565b6001600160a01b038516612a2057612a1b84612f5c565b611c7f565b846001600160a01b0316816001600160a01b031614611c7f57611c7f8585613003565b5f516020613b435f395f51905f525460020361103857604051633ee5aeb560e01b815260040160405180910390fd5b612a7c8383613051565b611179335f8585856126e2565b612a9382826118f8565b610e735760405163e2517d3f60e01b81526001600160a01b038216600482015260248101839052604401610e9c565b600d5460ff1661103857604051638dfc202b60e01b815260040160405180910390fd5b6001600160a01b038316612b0e5760405163a9fbf51f60e01b81525f6004820152602401610e9c565b6001600160a01b038216612b4057604051630b61174360e31b81526001600160a01b0383166004820152602401610e9c565b6001600160a01b038381165f81815260056020908152604080832094871680845294825291829020805460ff191686151590811790915591519182527f17307eab39ab6107e8899845ad3d59bd9653f200f220920489ca2b5937696c31910160405180910390a3505050565b5f81815b8451811015612be657612bdc82868381518110612bcf57612bcf6139a0565b60200260200101516130b2565b9150600101612bb0565b509392505050565b5f8072184f03e93ff9f4daa797ed6e38ed64bf6a1f0160401b8310612c2c5772184f03e93ff9f4daa797ed6e38ed64bf6a1f0160401b830492506040015b6d04ee2d6d415b85acef81000000008310612c58576d04ee2d6d415b85acef8100000000830492506020015b662386f26fc100008310612c7657662386f26fc10000830492506010015b6305f5e1008310612c8e576305f5e100830492506008015b6127108310612ca257612710830492506004015b60648310612cb4576064830492506002015b600a8310610d895760010192915050565b5f6001600160e01b0319821663780e9d6360e01b1480610d895750610d89826130e1565b8080612cfd57506001600160a01b03821615155b15612dbe575f612d0c8461223d565b90506001600160a01b03831615801590612d385750826001600160a01b0316816001600160a01b031614155b8015612d4b5750612d498184611f6a565b155b15612d745760405163a9fbf51f60e01b81526001600160a01b0384166004820152602401610e9c565b8115612dbc5783856001600160a01b0316826001600160a01b03167f8c5be1e5ebec7d5bd14f71427d1e84f3dd0314c0f7b2291e5b200ac8c7c3b92560405160405180910390a45b505b50505f90815260046020526040902080546001600160a01b0319166001600160a01b0392909216919091179055565b5f828152600260205260408120546001600160a01b0390811690831615612e1957612e19818486613130565b6001600160a01b03811615612e5357612e345f855f5f612ce9565b6001600160a01b0381165f90815260036020526040902080545f190190555b6001600160a01b03851615612e81576001600160a01b0385165f908152600360205260409020805460010190555b5f8481526002602052604080822080546001600160a01b0319166001600160a01b0389811691821790925591518793918516917fddf252ad1be2c89b69c2b068fc378daa952ba7f163c4a11628f55a4df523b3ef91a4949350505050565b5f612ee983611764565b5f838152600760209081526040808320546001600160a01b0388168452600690925290912091925090818314612f3e575f83815260208281526040808320548584528184208190558352600790915290208290555b5f938452600760209081526040808620869055938552525081205550565b6008545f90612f6d90600190613afb565b5f8381526009602052604081205460088054939450909284908110612f9457612f946139a0565b905f5260205f20015490508060088381548110612fb357612fb36139a0565b5f918252602080832090910192909255828152600990915260408082208490558582528120556008805480612fea57612fea613b0e565b600190038181905f5260205f20015f9055905550505050565b5f600161300f84611764565b6130199190613afb565b6001600160a01b039093165f908152600660209081526040808320868452825280832085905593825260079052919091209190915550565b6001600160a01b03821661307a57604051633250574960e11b81525f6004820152602401610e9c565b5f61308683835f612280565b90506001600160a01b03811615611179576040516339e3563760e11b81525f6004820152602401610e9c565b5f8183106130cc575f8281526020849052604090206130da565b5f8381526020839052604090205b9392505050565b5f6001600160e01b031982166380ac58cd60e01b148061311157506001600160e01b03198216635b5e139f60e01b145b80610d8957506301ffc9a760e01b6001600160e01b0319831614610d89565b61313b838383613194565b611179576001600160a01b03831661316957604051637e27328960e01b815260048101829052602401610e9c565b60405163177e802f60e01b81526001600160a01b038316600482015260248101829052604401610e9c565b5f6001600160a01b03831615801590611c7f5750826001600160a01b0316846001600160a01b031614806131cd57506131cd8484611f6a565b80611c7f5750505f908152600460205260409020546001600160a01b03908116911614919050565b6001600160e01b0319811681146111b0575f5ffd5b5f6020828403121561321a575f5ffd5b81356130da816131f5565b5f81518084528060208401602086015e5f602082860101526020601f19601f83011685010191505092915050565b602081525f6130da6020830184613225565b5f60208284031215613275575f5ffd5b5035919050565b6001600160a01b03811681146111b0575f5ffd5b5f5f604083850312156132a1575f5ffd5b82356132ac8161327c565b946020939093013593505050565b5f602082840312156132ca575f5ffd5b81356130da8161327c565b5f5f5f606084860312156132e7575f5ffd5b83356132f28161327c565b925060208401356133028161327c565b929592945050506040919091013590565b5f5f60408385031215613324575f5ffd5b50508035926020909101359150565b5f5f60408385031215613344575f5ffd5b8235915060208301356133568161327c565b809150509250929050565b634e487b7160e01b5f52602160045260245ffd5b6004811061339157634e487b7160e01b5f52602160045260245ffd5b9052565b61012081016133a4828c613375565b602082019990995260408101979097526060870195909552921515608086015260a085019190915260c084015260e083015261010090910152919050565b634e487b7160e01b5f52604160045260245ffd5b5f5f67ffffffffffffffff841115613410576134106133e2565b50604051601f19601f85018116603f0116810181811067ffffffffffffffff8211171561343f5761343f6133e2565b604052838152905080828401851015613456575f5ffd5b838360208301375f60208583010152509392505050565b5f6020828403121561347d575f5ffd5b813567ffffffffffffffff811115613493575f5ffd5b8201601f810184136134a3575f5ffd5b611c7f848235602084016133f6565b5f5f5f606084860312156134c4575f5ffd5b505081359360208301359350604090920135919050565b5f5f604083850312156134ec575f5ffd5b82356134f78161327c565b915060208301356001600160601b0381168114613356575f5ffd5b80358015158114613521575f5ffd5b919050565b5f5f60408385031215613537575f5ffd5b82356135428161327c565b915061355060208401613512565b90509250929050565b5f5f83601f840112613569575f5ffd5b50813567ffffffffffffffff811115613580575f5ffd5b6020830191508360208260051b85010111156110b8575f5ffd5b5f5f602083850312156135ab575f5ffd5b823567ffffffffffffffff8111156135c1575f5ffd5b6135cd85828601613559565b90969095509350505050565b60208101610d898284613375565b5f5f5f5f608085870312156135fa575f5ffd5b84356136058161327c565b935060208501356136158161327c565b925060408501359150606085013567ffffffffffffffff811115613637575f5ffd5b8501601f81018713613647575f5ffd5b613656878235602084016133f6565b91505092959194509250565b5f5f5f60408486031215613674575f5ffd5b833561367f8161327c565b9250602084013567ffffffffffffffff81111561369a575f5ffd5b6136a686828701613559565b9497909650939450505050565b5f602082840312156136c3575f5ffd5b8135600481106130da575f5ffd5b5f5f5f5f5f608086880312156136e5575f5ffd5b8535945060208601356136f78161327c565b935060408601356137078161327c565b9250606086013567ffffffffffffffff811115613722575f5ffd5b8601601f81018813613732575f5ffd5b803567ffffffffffffffff811115613748575f5ffd5b886020828401011115613759575f5ffd5b959894975092955050506020019190565b5f5f6040838503121561377b575f5ffd5b82356137868161327c565b915060208301356133568161327c565b5f602082840312156137a6575f5ffd5b6130da82613512565b600181811c908216806137c357607f821691505b6020821081036137e157634e487b7160e01b5f52602260045260245ffd5b50919050565b634e487b7160e01b5f52601160045260245ffd5b5f6001820161380c5761380c6137e7565b5060010190565b606081016138218286613375565b8360208301528215156040830152949350505050565b8082028115828204841417610d8957610d896137e7565b5f8261386857634e487b7160e01b5f52601260045260245ffd5b500490565b80820180821115610d8957610d896137e7565b601f82111561117957805f5260205f20601f840160051c810160208510156138a55750805b601f840160051c820191505b81811015612803575f81556001016138b1565b815167ffffffffffffffff8111156138de576138de6133e2565b6138f2816138ec84546137af565b84613880565b6020601f821160018114613924575f831561390d5750848201515b5f19600385901b1c1916600184901b178455612803565b5f84815260208120601f198516915b828110156139535787850151825560209485019460019092019101613933565b508482101561397057868401515f19600387901b60f8161c191681555b50505050600190811b01905550565b604081525f6139916040830185613225565b90508260208301529392505050565b634e487b7160e01b5f52603260045260245ffd5b604081016139c28285613375565b8260208301529392505050565b5f5f84546139dc816137af565b6001821680156139f35760018114613a0857613a35565b60ff1983168652811515820286019350613a35565b875f5260205f205f5b83811015613a2d57815488820152600190910190602001613a11565b505081860193505b505050602f60f81b815283518060208601600184015e5f9101600101908152949350505050565b6001600160a01b03851681526060602082018190528101839052828460808301375f608084830101525f6080601f19601f860116830101905082604083015295945050505050565b6001600160a01b03858116825284166020820152604081018390526080606082018190525f90613ad690830184613225565b9695505050505050565b5f60208284031215613af0575f5ffd5b81516130da816131f5565b81810381811115610d8957610d896137e7565b634e487b7160e01b5f52603160045260245ffdfea8637f389ea4bf747cb5f69479b1655cc2cec0b272d1e8f4fa9bc67d4d3e5c4a9b779b17422d0df92223018b32b4d1fa46e071723d6817e2486d003becc55f00dcafc294b1f1d23b81c2d8f3b760d3d1ada4d9e4f865ba6e5173f9560600d754a2646970667358221220a0c55433b2435dae84fa21edead23aee7e3ff1ff3ad1090f161ad64bee7daf5b64736f6c634300081c0033",
  "linkReferences": {},
  "deployedLinkReferences": {},
  "immutableReferences": {},
  "inputSourceName": "project/contracts/BearthNFT.sol",
  "buildInfoId": "solc-0_8_28-03e2af2fedb9f8c19a9e175c906dd6ddf5dfba32"
}